{
  "contractName": "Metadata",
  "abi": [
    {
      "constant": true,
      "inputs": [
        {
          "internalType": "uint256",
          "name": "",
          "type": "uint256"
        }
      ],
      "name": "metadata",
      "outputs": [
        {
          "internalType": "string",
          "name": "deviceId",
          "type": "string"
        },
        {
          "internalType": "string",
          "name": "macAddress",
          "type": "string"
        },
        {
          "internalType": "string",
          "name": "firmwareVersion",
          "type": "string"
        },
        {
          "internalType": "string",
          "name": "publicKey",
          "type": "string"
        },
        {
          "internalType": "string",
          "name": "privateKey",
          "type": "string"
        },
        {
          "internalType": "string",
          "name": "contractAddress",
          "type": "string"
        }
      ],
      "payable": false,
      "stateMutability": "view",
      "type": "function"
    },
    {
      "constant": true,
      "inputs": [],
      "name": "metadataCount",
      "outputs": [
        {
          "internalType": "uint256",
          "name": "",
          "type": "uint256"
        }
      ],
      "payable": false,
      "stateMutability": "view",
      "type": "function"
    },
    {
      "constant": false,
      "inputs": [
        {
          "internalType": "string",
          "name": "deviceId",
          "type": "string"
        },
        {
          "internalType": "string",
          "name": "macAddress",
          "type": "string"
        },
        {
          "internalType": "string",
          "name": "firmwareVersion",
          "type": "string"
        },
        {
          "internalType": "string",
          "name": "publicKey",
          "type": "string"
        },
        {
          "internalType": "string",
          "name": "privateKey",
          "type": "string"
        },
        {
          "internalType": "string",
          "name": "contractAddress",
          "type": "string"
        }
      ],
      "name": "addMetadata",
      "outputs": [],
      "payable": false,
      "stateMutability": "nonpayable",
      "type": "function"
    },
    {
      "constant": true,
      "inputs": [
        {
          "internalType": "uint256",
          "name": "index",
          "type": "uint256"
        }
      ],
      "name": "getMetadata",
      "outputs": [
        {
          "internalType": "string",
          "name": "deviceId",
          "type": "string"
        },
        {
          "internalType": "string",
          "name": "macAddress",
          "type": "string"
        },
        {
          "internalType": "string",
          "name": "firmwareVersion",
          "type": "string"
        },
        {
          "internalType": "string",
          "name": "publicKey",
          "type": "string"
        },
        {
          "internalType": "string",
          "name": "privateKey",
          "type": "string"
        },
        {
          "internalType": "string",
          "name": "contractAddress",
          "type": "string"
        }
      ],
      "payable": false,
      "stateMutability": "view",
      "type": "function"
    }
  ],
  "bytecode": "0x608060405234801561001057600080fd5b506113d3806100206000396000f3fe608060405234801561001057600080fd5b506004361061004c5760003560e01c8063342afb7e14610051578063367456951461006f578063a574cea41461041d578063e3684e39146106e0575b600080fd5b6100596109a3565b6040518082815260200191505060405180910390f35b61041b600480360360c081101561008557600080fd5b81019080803590602001906401000000008111156100a257600080fd5b8201836020820111156100b457600080fd5b803590602001918460018302840111640100000000831117156100d657600080fd5b91908080601f016020809104026020016040519081016040528093929190818152602001838380828437600081840152601f19601f8201169050808301925050505050505091929192908035906020019064010000000081111561013957600080fd5b82018360208201111561014b57600080fd5b8035906020019184600183028401116401000000008311171561016d57600080fd5b91908080601f016020809104026020016040519081016040528093929190818152602001838380828437600081840152601f19601f820116905080830192505050505050509192919290803590602001906401000000008111156101d057600080fd5b8201836020820111156101e257600080fd5b8035906020019184600183028401116401000000008311171561020457600080fd5b91908080601f016020809104026020016040519081016040528093929190818152602001838380828437600081840152601f19601f8201169050808301925050505050505091929192908035906020019064010000000081111561026757600080fd5b82018360208201111561027957600080fd5b8035906020019184600183028401116401000000008311171561029b57600080fd5b91908080601f016020809104026020016040519081016040528093929190818152602001838380828437600081840152601f19601f820116905080830192505050505050509192919290803590602001906401000000008111156102fe57600080fd5b82018360208201111561031057600080fd5b8035906020019184600183028401116401000000008311171561033257600080fd5b91908080601f016020809104026020016040519081016040528093929190818152602001838380828437600081840152601f19601f8201169050808301925050505050505091929192908035906020019064010000000081111561039557600080fd5b8201836020820111156103a757600080fd5b803590602001918460018302840111640100000000831117156103c957600080fd5b91908080601f016020809104026020016040519081016040528093929190818152602001838380828437600081840152601f19601f8201169050808301925050505050505091929192905050506109a9565b005b6104496004803603602081101561043357600080fd5b8101908080359060200190929190505050610ab5565b6040518080602001806020018060200180602001806020018060200187810387528d818151815260200191508051906020019080838360005b8381101561049d578082015181840152602081019050610482565b50505050905090810190601f1680156104ca5780820380516001836020036101000a031916815260200191505b5087810386528c818151815260200191508051906020019080838360005b838110156105035780820151818401526020810190506104e8565b50505050905090810190601f1680156105305780820380516001836020036101000a031916815260200191505b5087810385528b818151815260200191508051906020019080838360005b8381101561056957808201518184015260208101905061054e565b50505050905090810190601f1680156105965780820380516001836020036101000a031916815260200191505b5087810384528a818151815260200191508051906020019080838360005b838110156105cf5780820151818401526020810190506105b4565b50505050905090810190601f1680156105fc5780820380516001836020036101000a031916815260200191505b50878103835289818151815260200191508051906020019080838360005b8381101561063557808201518184015260208101905061061a565b50505050905090810190601f1680156106625780820380516001836020036101000a031916815260200191505b50878103825288818151815260200191508051906020019080838360005b8381101561069b578082015181840152602081019050610680565b50505050905090810190601f1680156106c85780820380516001836020036101000a031916815260200191505b509c5050505050505050505050505060405180910390f35b61070c600480360360208110156106f657600080fd5b8101908080359060200190929190505050610ef7565b6040518080602001806020018060200180602001806020018060200187810387528d818151815260200191508051906020019080838360005b83811015610760578082015181840152602081019050610745565b50505050905090810190601f16801561078d5780820380516001836020036101000a031916815260200191505b5087810386528c818151815260200191508051906020019080838360005b838110156107c65780820151818401526020810190506107ab565b50505050905090810190601f1680156107f35780820380516001836020036101000a031916815260200191505b5087810385528b818151815260200191508051906020019080838360005b8381101561082c578082015181840152602081019050610811565b50505050905090810190601f1680156108595780820380516001836020036101000a031916815260200191505b5087810384528a818151815260200191508051906020019080838360005b83811015610892578082015181840152602081019050610877565b50505050905090810190601f1680156108bf5780820380516001836020036101000a031916815260200191505b50878103835289818151815260200191508051906020019080838360005b838110156108f85780820151818401526020810190506108dd565b50505050905090810190601f1680156109255780820380516001836020036101000a031916815260200191505b50878103825288818151815260200191508051906020019080838360005b8381101561095e578082015181840152602081019050610943565b50505050905090810190601f16801561098b5780820380516001836020036101000a031916815260200191505b509c5050505050505050505050505060405180910390f35b60015481565b6040518060c001604052808781526020018681526020018581526020018481526020018381526020018281525060008060015481526020019081526020016000206000820151816000019080519060200190610a069291906112c3565b506020820151816001019080519060200190610a239291906112c3565b506040820151816002019080519060200190610a409291906112c3565b506060820151816003019080519060200190610a5d9291906112c3565b506080820151816004019080519060200190610a7a9291906112c3565b5060a0820151816005019080519060200190610a979291906112c3565b50905050600160008154809291906001019190505550505050505050565b606080606080606080610ac6611343565b6000808981526020019081526020016000206040518060c0016040529081600082018054600181600116156101000203166002900480601f016020809104026020016040519081016040528092919081815260200182805460018160011615610100020316600290048015610b7c5780601f10610b5157610100808354040283529160200191610b7c565b820191906000526020600020905b815481529060010190602001808311610b5f57829003601f168201915b50505050508152602001600182018054600181600116156101000203166002900480601f016020809104026020016040519081016040528092919081815260200182805460018160011615610100020316600290048015610c1e5780601f10610bf357610100808354040283529160200191610c1e565b820191906000526020600020905b815481529060010190602001808311610c0157829003601f168201915b50505050508152602001600282018054600181600116156101000203166002900480601f016020809104026020016040519081016040528092919081815260200182805460018160011615610100020316600290048015610cc05780601f10610c9557610100808354040283529160200191610cc0565b820191906000526020600020905b815481529060010190602001808311610ca357829003601f168201915b50505050508152602001600382018054600181600116156101000203166002900480601f016020809104026020016040519081016040528092919081815260200182805460018160011615610100020316600290048015610d625780601f10610d3757610100808354040283529160200191610d62565b820191906000526020600020905b815481529060010190602001808311610d4557829003601f168201915b50505050508152602001600482018054600181600116156101000203166002900480601f016020809104026020016040519081016040528092919081815260200182805460018160011615610100020316600290048015610e045780601f10610dd957610100808354040283529160200191610e04565b820191906000526020600020905b815481529060010190602001808311610de757829003601f168201915b50505050508152602001600582018054600181600116156101000203166002900480601f016020809104026020016040519081016040528092919081815260200182805460018160011615610100020316600290048015610ea65780601f10610e7b57610100808354040283529160200191610ea6565b820191906000526020600020905b815481529060010190602001808311610e8957829003601f168201915b5050505050815250509050806000015181602001518260400151836060015184608001518560a001518595508494508393508292508191508090509650965096509650965096505091939550919395565b6000602052806000526040600020600091509050806000018054600181600116156101000203166002900480601f016020809104026020016040519081016040528092919081815260200182805460018160011615610100020316600290048015610fa35780601f10610f7857610100808354040283529160200191610fa3565b820191906000526020600020905b815481529060010190602001808311610f8657829003601f168201915b505050505090806001018054600181600116156101000203166002900480601f0160208091040260200160405190810160405280929190818152602001828054600181600116156101000203166002900480156110415780601f1061101657610100808354040283529160200191611041565b820191906000526020600020905b81548152906001019060200180831161102457829003601f168201915b505050505090806002018054600181600116156101000203166002900480601f0160208091040260200160405190810160405280929190818152602001828054600181600116156101000203166002900480156110df5780601f106110b4576101008083540402835291602001916110df565b820191906000526020600020905b8154815290600101906020018083116110c257829003601f168201915b505050505090806003018054600181600116156101000203166002900480601f01602080910402602001604051908101604052809291908181526020018280546001816001161561010002031660029004801561117d5780601f106111525761010080835404028352916020019161117d565b820191906000526020600020905b81548152906001019060200180831161116057829003601f168201915b505050505090806004018054600181600116156101000203166002900480601f01602080910402602001604051908101604052809291908181526020018280546001816001161561010002031660029004801561121b5780601f106111f05761010080835404028352916020019161121b565b820191906000526020600020905b8154815290600101906020018083116111fe57829003601f168201915b505050505090806005018054600181600116156101000203166002900480601f0160208091040260200160405190810160405280929190818152602001828054600181600116156101000203166002900480156112b95780601f1061128e576101008083540402835291602001916112b9565b820191906000526020600020905b81548152906001019060200180831161129c57829003601f168201915b5050505050905086565b828054600181600116156101000203166002900490600052602060002090601f016020900481019282601f1061130457805160ff1916838001178555611332565b82800160010185558215611332579182015b82811115611331578251825591602001919060010190611316565b5b50905061133f9190611379565b5090565b6040518060c001604052806060815260200160608152602001606081526020016060815260200160608152602001606081525090565b61139b91905b8082111561139757600081600090555060010161137f565b5090565b9056fea265627a7a7231582006e05d73bc6bcbb7763fbd0d4a50d428eea080d36990a3d47731427e60848c4164736f6c63430005100032",
  "source": "pragma solidity ^0.5.0;\n\ncontract Metadata {\n    struct MetadataStruct {\n        string deviceId;\n        string macAddress;\n        string firmwareVersion;\n        string publicKey;\n        string privateKey;\n        string contractAddress;\n    }\n\n    mapping(uint => MetadataStruct) public metadata;\n\n    uint public metadataCount;\n\n    function addMetadata(\n        string memory deviceId,\n        string memory macAddress,\n        string memory firmwareVersion,\n        string memory publicKey,\n        string memory privateKey,\n        string memory contractAddress\n    )\n        public\n    {\n        metadata[metadataCount] = MetadataStruct(deviceId, macAddress, firmwareVersion, publicKey, privateKey, contractAddress);\n        metadataCount++;\n    }\n\n    function getMetadata(uint index) public view returns (\n        string memory deviceId,\n        string memory macAddress,\n        string memory firmwareVersion,\n        string memory publicKey,\n        string memory privateKey,\n        string memory contractAddress\n    ) {\n        MetadataStruct memory data = metadata[index];\n        return (\n            data.deviceId,\n            data.macAddress,\n            data.firmwareVersion,\n            data.publicKey,\n            data.privateKey,\n            data.contractAddress\n        );\n    }\n}",
  "sourcePath": "/home/aditya/iot/contracts/Metadata.sol",
  "compiler": {
    "name": "solc",
    "version": "0.5.16+commit.9c3226ce.Emscripten.clang"
  },
  "schemaVersion": "3.4.16",
  "updatedAt": "2024-07-23T03:39:40.849Z",
  "networkType": "ethereum",
  "devdoc": {
    "methods": {}
  },
  "userdoc": {
    "methods": {}
  }
}